:1000000010C02AC029C028C027C026C025C024C0CF
:1000100023C022C021C020C01FC01EC01DC01CC0E4
:100020001BC011241FBECFE5D1E0DEBFCDBF10E065
:10003000A0E6B0E0E0EEF7E002C005900D92AE3829
:10004000B107D9F720E0AEE8B0E001C01D92A839B1
:10005000B207E1F72DD0C2C3D3CFDB98E7ECF0E0D5
:100060003197F1F700C0000030E020E090E0AC01F3
:10007000022E02C0559547950A94E2F740FF14C03E
:10008000DB9AE7ECF0E03197F1F700C000002F5F5A
:100090003F4F2830310559F7DB9A87EC90E0019704
:1000A000F1F700C000000895DB98EBCFD39A0895D4
:1000B00080E886BD16BCFADF8DE290E09093970051
:1000C000809396008AE690E09F938F93EDD241D083
:1000D00064E082E0DBD085E690E05AD180E690E0F3
:1000E00049D10F900F9080E8E82E80E0F82EC3E809
:1000F000D0E008E810E01DD18823E9F381E990E021
:10010000A0D0FF92EF92D0D2809191001F928F9356
:10011000DF93CF93C9D2809192001F928F93DF9388
:10012000CF93C2D2809193001F928F93DF93CF938E
:10013000BBD2809194001F928F931F930F93B4D2E0
:100140008DB79EB742960FB6F8949EBF0FBE8DBF77
:10015000D2CFB9D280E0BDD281E0C1D20895EF9272
:10016000FF920F931F93CF93E82E80E0BED207E05B
:1001700010E0C0E0F12CC701002E02C095958795D4
:100180000A94E2F780FF14C081E0B5D281E0ADD2DD
:10019000CC0FB7D28111C16080E0A7D20150110904
:1001A00050F78C2FCF911F910F91FF90EF900895F2
:1001B00080E0EBCFCF9380E092D28FEFD0DFC82FDB
:1001C00081E08DD28C2FCF910895EF92FF920F9303
:1001D0001F93CF93DF93EC018B017C01E40EF11CA4
:1001E000CE15DF0521F4CDB7DEB7E6E0E8C2899190
:1001F000B6DFF80181938F01F3CF0F931F93CF9355
:10020000DF93EC018C01060F111DC017D10729F4F3
:10021000DF91CF911F910F9108958991A0DFF5CFC4
:10022000CF93DF93C82FD62F80E059D28C2F8F71B8
:10023000806295DF8D2F93DF81E051D2DF91CF91E6
:100240000895CF93DF93EC0180E049D281E687DF08
:1002500040919500BE01CE01B8DF81E040D260E45C
:1002600087E0DEDFDF91CF91089580E038D282EE23
:1002700076DF81E034D260E787E0D2DF80E029D208
:100280006BE080E0CDDF81E024D20895609395009B
:10029000682F85E0C5DF60E081E1C2DF60919500F5
:1002A00082E1BEDF60E083E1BBDF60E084E1B8DFD4
:1002B00060E085E1B5DF60E086E1B2DF66E086E020
:1002C000AFDF68E080E0ACDF63E081E0A9DF63E0FE
:1002D00082E0A6DF6FE484E0A3DF60E08CE1A0DFD2
:1002E000C4DF08950F931F93CF93DF93082FEB0183
:1002F000142F80E0F4D1802F8F7131DF412FBE01A8
:10030000CE0163DF81E0EBD1DF91CF911F910F919F
:100310000895A1E0B0E0EEE8F1E039C241E0BE01AD
:100320006F5F7F4F87E1DEDF898181702196E2E098
:100330004AC240DF91E086FD04C0EBDF91E081110D
:1003400090E0892F08950F931F93CF93DF93C82FC9
:100350008B01D42F80E0C3D18C2F8F718062FFDEA0
:100360006D2FC8014ADF81E0BAD1DF91CF911F9193
:100370000F910895CF93DF93EC0180E0AAD145E07F
:10038000BE018BE0E0DF81E0A4D1DF91CF91089541
:10039000CF93DF93EC0145E0BC018AE0D4DF45E078
:1003A000BE0180E1D0DFDF91CF910895E0918E0012
:1003B000F0918F00309749F09F012F5F3F4F3093AE
:1003C0008F0020938E0080830895E0919600F09135
:1003D0009700309709F009950895CF93DF93EC01CA
:1003E0008991811103C0DF91CF910895DFDFF8CFAC
:1003F000A9E1B0E0EDEFF1E0BAC1FC018B01CE0163
:1004000001969A8B898B8081882309F44AC13F0128
:100410009FEF691A790A853209F091C021813F0165
:10042000203371F5A3E06A0E711C2281EE24E3945F
:10043000F12C312C212C80ED820F8A3088F1822F13
:100440008F7D8C3429F46894E2F8F30121913F0107
:10045000222309F426C180EE820F21360CF4822F6C
:100460008F3409F46FC064F5833409F45FC08434B9
:1004700009F482C0823409F061C042E050E064C0F7
:100480002D3231F0B2E06B0E711CF12CE12CD1CF8A
:1004900023E0620E711C228132E0E32EF12CC9CFE1
:1004A000C1016AE070E030D1820F911D27FD9A955D
:1004B0001C01A0E32A1A3108F30121913F01BBCFAF
:1004C000853509F459C0883509F459C08335B1F52B
:1004D000F801A190B1906F01F50110E000E0819169
:1004E00098012F5F3F4F811116C0F2E0EF22FF24E9
:1004F00048012FEF821A920AE114F10421F4021547
:10050000130558F08401C50168DF0215130548F092
:100510008601F30178CF8901E2CF80E247DF8401D1
:10052000E7CF80E243DF0F5F1F4FEFCF680182E02C
:10053000C80ED11CD8018C9139DFEACF822F36DF6B
:100540006801E6CF48E050E06801E2FE1BC0F80118
:1005500081909190A190B1906F01843429F5B7FEFC
:1005600023C0B094A09490948094811C911CA11CF1
:10057000B11C6894E3F818C04AE050E0E5CF40E1D0
:1005800050E0E2CFF2E0CF0ED11C843441F4D80128
:100590008D909C90092C000CAA08BB08E0CFF801B4
:1005A00080809180B12CA12C283709F071C0F7E22E
:1005B000F98FCE010196988F8F8B512C412CCA0157
:1005C000B0E0A0E08B8B9C8BAD8BBE8BC501B401E2
:1005D0002B893C894D895E89A8D0862F6A3014F01A
:1005E000898D860F82010F5F1F4F805DAF89B88DA7
:1005F0008D93B88FAF8B8B899C89AD89BE89881606
:100600009906AA06BB0648F049015A0100311105B6
:1006100009F041C02FE0422E512CE3FE0BC0E1E077
:10062000F0E0EC0FFD1FE00FF11F9DE290838201CF
:100630000E5F1F4F90E2592EE0FE02C080E3582E5D
:100640005801A2E0EA22FF244501BFEF8B1A9B0A62
:10065000E114F10421F4A214B304F8F05401E1E030
:10066000F0E0EC0FFD1F0E0F1F1FD8018E918D01C2
:100670009DDEE989FA890E171F07B9F7A214B304A2
:1006800008F046CF80E292DEFFEFAF1ABF0AF6CF46
:1006900027E0298F8ECF280199CF852D87DE540141
:1006A000D3CF6996E2E17FC0B0E0A0E0E9E5F3E0F6
:1006B0006EC0BE016B5F7F4FFB0181919191BF01C5
:1006C00097DEE2E080C0BA9AD79AB89AB99AD098E1
:1006D0000895882311F0C29A0895C2980895882336
:1006E00011F0DF9A0895DF980895882311F0C09AD9
:1006F0000895C0980895882311F0C19A0895C1986B
:10070000089589B3817008950024552704C0080E08
:10071000591F880F991F009729F076956795B8F3B0
:100720007105B9F7802D952F0895A1E21A2EAA1B05
:10073000BB1BFD010DC0AA1FBB1FEE1FFF1FA21791
:10074000B307E407F50720F0A21BB30BE40BF50B8E
:10075000661F771F881F991F1A9469F76095709517
:10076000809590959B01AC01BD01CF0108952F921A
:100770003F924F925F926F927F928F929F92AF9231
:10078000BF92CF92DF92EF92FF920F931F93CF937E
:10079000DF93CDB7DEB7CA1BDB0B0FB6F894DEBF15
:1007A0000FBECDBF09942A88398848885F846E843B
:1007B0007D848C849B84AA84B984C884DF80EE8085
:1007C000FD800C811B81AA81B981CE0FD11D0FB68E
:1007D000F894DEBF0FBECDBFED010895F894FFCFB2
:1007E000E7E7E7E7E7D7D7D7D7D70D0A3E20525834
:1007F000206465766963652072656164790D0A001D
:0E0800003E200025325820002532580D0A00F7
:00000001FF
