:1000000010C02AC029C028C027C026C025C024C0CF
:1000100023C022C021C020C01FC01EC01DC01CC0E4
:100020001BC011241FBECFE5D1E0DEBFCDBF10E065
:10003000A0E6B0E0E6E2F8E002C005900D92AC3C2C
:10004000B107D9F720E0ACECB0E001C01D92A73DAC
:10005000B207E1F72DD0E5C3D3CFDB98E7ECF0E0B2
:100060003197F1F700C0000030E020E090E0AC01F3
:10007000022E02C0559547950A94E2F740FF14C03E
:10008000DB9AE7ECF0E03197F1F700C000002F5F5A
:100090003F4F2830310559F7DB9A87EC90E0019704
:1000A000F1F700C000000895DB98EBCFD39A0895D4
:1000B00080E886BD16BCFADF8DE290E09093D60012
:1000C0008093D5008AE690E09F938F9310D34ED013
:1000D00064E082E0E6D085E690E07DD180E690E0C5
:1000E0006CD10F900F908AEAD82E95E5C92E08E9B9
:1000F00010E020E8E22E20E0F22EC0EBD0E01092DB
:10010000D000D092D100C092D2008091CC0091E07A
:10011000980F9093CC008093D30080ED90E0F4D0C2
:1001200061D08111FDCF65D08093CF00811119C0BE
:10013000FF92EF92DCD20F900F9018D18093CF00F6
:100140001F928F93DF93CF93D2D29AD08FE19EE408
:100150000197F1F700C000000F900F900F900F90E3
:10016000CECF813051F71F930F93E4CFCFD280E0F1
:10017000D3D281E0D7D20895EF92FF920F931F93CD
:10018000CF93E82E80E0D4D207E010E0C0E0F12C5D
:10019000C701002E02C0959587950A94E2F780FF6B
:1001A00014C081E0CBD281E0C3D2CC0FCDD281117B
:1001B000C16080E0BDD20150110950F78C2FCF9162
:1001C0001F910F91FF90EF90089580E0EBCFCF93B8
:1001D00080E0A8D28FEFD0DFC82F81E0A3D28C2F90
:1001E000CF910895F4DF982F907381E009F080E0BB
:1001F0000895EDDF85FD04C084FD04C08FEF0895F0
:1002000080E0089581E00895EF92FF920F931F938D
:10021000CF93DF93EC018B017C01E40EF11CCE1532
:10022000DF0521F4CDB7DEB7E6E0ECC28991A4DFAB
:10023000F80181938F01F3CF0F931F93CF93DF9337
:10024000EC018C01060F111DC017D10729F4DF91B5
:10025000CF911F910F91089589918EDFF5CFCF93A4
:10026000DF93C82FD62F80E05DD28C2F8F718062F4
:1002700083DF8D2F81DF81E055D2DF91CF9108950B
:1002800080E050D282EE78DF81E04CD260E787E0F8
:10029000E6DF80E041D26BE080E0E1DF81E03CD24C
:1002A00008956093D400682F85E0D9DF60E081E194
:1002B000D6DF6091D40082E1D2DF60E083E1CFDF5E
:1002C00060E084E1CCDF60E085E1C9DF60E086E1E9
:1002D000C6DF66E086E0C3DF68E080E0C0DF63E0A1
:1002E00081E0BDDF63E082E0BADF6FE484E0B7DF86
:1002F00060E08CE1B4DFC4DF089560E787E0AFDF42
:100300006AE080E0ACDF0895CF93DF93EC0180E0FA
:1003100003D2F3DF80E006D281EE2EDF81E002D24D
:1003200080E000D280EA28DF6091D400CE0184DF33
:1003300081E0F8D181E0F0D1DF91CF9108950F9362
:100340001F93CF93DF93082FEB01142F80E0EAD1A6
:10035000802F8F7111DF412FBE01CE0155DF81E06B
:10036000E1D1DF91CF911F910F910895A1E0B0E00D
:10037000EBEBF1E02FC241E0BE016F5F7F4F88E001
:10038000DEDF89818F702196E2E040C20F931F93D8
:10039000CF93DF93C82F8B01D42F80E0C3D18C2F54
:1003A0008F718062E9DE6D2FC80146DF81E0BAD12E
:1003B000DF91CF911F910F910895CF93DF93EC01BF
:1003C00080E0AAD145E0BE018BE0E0DF81E0A4D16E
:1003D000DF91CF910895CF93DF93EC0145E0BC010D
:1003E0008AE0D4DF45E0BE0180E1D0DFDF91CF912C
:1003F0000895E091CD00F091CE00309749F09F0133
:100400002F5F3F4F3093CE002093CD00808308951F
:10041000E091D500F091D600309709F00995089544
:10042000CF93DF93EC018991811103C0DF91CF91CC
:100430000895DFDFF8CFA9E1B0E0E0E2F2E0BAC171
:10044000FC018B01CE0101969A8B898B80818823D8
:1004500009F44AC13F019FEF691A790A853209F010
:1004600091C021813F01203371F5A3E06A0E711C18
:100470002281EE24E394F12C312C212C80ED820F8B
:100480008A3088F1822F8F7D8C3429F46894E2F8C9
:10049000F30121913F01222309F426C180EE820F4E
:1004A00021360CF4822F8F3409F46FC064F5833445
:1004B00009F45FC0843409F482C0823409F061C059
:1004C00042E050E064C02D3231F0B2E06B0E711C9E
:1004D000F12CE12CD1CF23E0620E711C228132E09D
:1004E000E32EF12CC9CFC1016AE070E030D1820F58
:1004F000911D27FD9A951C01A0E32A1A3108F301EA
:1005000021913F01BBCF853509F459C0883509F4E5
:1005100059C08335B1F5F801A190B1906F01F50193
:1005200010E000E0819198012F5F3F4F811116C0CC
:10053000F2E0EF22FF2448012FEF821A920AE11421
:10054000F10421F40215130558F08401C50168DF98
:100550000215130548F08601F30178CF8901E2CF37
:1005600080E247DF8401E7CF80E243DF0F5F1F4F68
:10057000EFCF680182E0C80ED11CD8018C9139DF21
:10058000EACF822F36DF6801E6CF48E050E068010D
:10059000E2FE1BC0F80181909190A190B1906F0193
:1005A000843429F5B7FE23C0B094A094909480942D
:1005B000811C911CA11CB11C6894E3F818C04AE08E
:1005C00050E0E5CF40E150E0E2CFF2E0CF0ED11CA9
:1005D000843441F4D8018D909C90092C000CAA0819
:1005E000BB08E0CFF80180809180B12CA12C283786
:1005F00009F071C0F7E2F98FCE010196988F8F8BC9
:10060000512C412CCA01B0E0A0E08B8B9C8BAD8BB0
:10061000BE8BC501B4012B893C894D895E89A8D068
:10062000862F6A3014F0898D860F82010F5F1F4F6D
:10063000805DAF89B88D8D93B88FAF8B8B899C8986
:10064000AD89BE8988169906AA06BB0648F04901FD
:100650005A010031110509F041C02FE0422E512C02
:10066000E3FE0BC0E1E0F0E0EC0FFD1FE00FF11F37
:100670009DE2908382010E5F1F4F90E2592EE0FEB3
:1006800002C080E3582E5801A2E0EA22FF2445016F
:10069000BFEF8B1A9B0AE114F10421F4A214B304F6
:1006A000F8F05401E1E0F0E0EC0FFD1F0E0F1F1F0A
:1006B000D8018E918D019DDEE989FA890E171F07F9
:1006C000B9F7A214B30408F046CF80E292DEFFEF40
:1006D000AF1ABF0AF6CF27E0298F8ECF280199CF16
:1006E000852D87DE5401D3CF6996E2E17FC0B0E06B
:1006F000A0E0ECE7F3E06EC0BE016B5F7F4FFB0153
:1007000081919191BF0197DEE2E080C0BA9AD79AB9
:10071000B89AB99AD0980895882311F0C29A08958A
:10072000C2980895882311F0DF9A0895DF980895FC
:10073000882311F0C09A0895C0980895882311F075
:10074000C19A0895C198089589B3817008950024CD
:10075000552704C0080E591F880F991F009729F0CC
:1007600076956795B8F37105B9F7802D952F0895A3
:10077000A1E21A2EAA1BBB1BFD010DC0AA1FBB1FA5
:10078000EE1FFF1FA217B307E407F50720F0A21B17
:10079000B30BE40BF50B661F771F881F991F1A9484
:1007A00069F760957095809590959B01AC01BD01AE
:1007B000CF0108952F923F924F925F926F927F9256
:1007C0008F929F92AF92BF92CF92DF92EF92FF9261
:1007D0000F931F93CF93DF93CDB7DEB7CA1BDB0B0D
:1007E0000FB6F894DEBF0FBECDBF09942A883988B2
:1007F00048885F846E847D848C849B84AA84B984B9
:10080000C884DF80EE80FD800C811B81AA81B981C4
:10081000CE0FD11D0FB6F894DEBF0FBECDBFED01D8
:060820000895F894FFCFDB
:10082600D7D7D7D7D7E7E7E7E7E70D0A3E205458EB
:10083600206465766963652072656164790D0A00D6
:100846003E205472616E6D697373696F6E207765B1
:100856006E74204F4B0D0A003E204D657373616721
:1008660065206973206C6F7374202E2E2E0D0A007E
:100876003E2052657472616E6D697373696F6E2086
:0C088600636F756E743A2025640D0A0043
:00000001FF
