:1000000010C017C016C015C014C013C012C011C054
:1000100010C00FC00EC00DC00CC00BC00AC009C07C
:1000200008C011241FBECFE5D1E0DEBFCDBF6CD12B
:10003000E0C1E6CFDC01FA0110828C918623E9F75A
:1000400088E88A95F1F78BEC90E00197F1F700C012
:1000500000008C91862319F08081816080838BEC75
:1000600090E00197F1F700C000008C91862319F011
:100070008081826080838BEC90E00197F1F700C073
:1000800000008C91862319F08081846080838BEC42
:1000900090E00197F1F700C000008C91862319F0E1
:1000A0008081886080838BEC90E00197F1F700C03D
:1000B00000008C91862319F08081806180838BEC15
:1000C00090E00197F1F700C000008C91862319F0B1
:1000D0008081806280838BEC90E00197F1F700C013
:1000E00000008C91862319F08081806480838BECE2
:1000F00090E00197F1F700C000008C91862319F081
:100100008081806880838BEC90E00197F1F700C0DC
:10011000000098E89A95F1F70895FC019081862FE8
:10012000809598239083ABECB0E01197F1F700C075
:100130000000908140FF02C0962B01C0982390835D
:10014000ABECB0E01197F1F700C00000908141FFE7
:1001500002C0962B01C098239083ABECB0E01197BE
:10016000F1F700C00000908142FF02C0962B01C051
:1001700098239083ABECB0E01197F1F700C000003A
:10018000908143FF02C0962B01C098239083ABEC73
:10019000B0E01197F1F700C00000908144FF02C069
:1001A000962B01C098239083ABECB0E01197F1F748
:1001B00000C00000908145FF02C0962B01C098232B
:1001C0009083ABECB0E01197F1F700C00000908194
:1001D00046FF02C0962B01C098239083ABECB0E0A1
:1001E0001197F1F700C0000047FF04C08081862B03
:1001F000808303C09081982390838BEC90E00197DB
:10020000F1F700C000008081862B8083ABECB0E06A
:100210001197F1F700C000008BEC90E00197F1F727
:1002200000C000000895FB01108227E030E099270C
:1002300087FD909541E050E0622FDC01022E02C064
:10024000B595A7950A94E2F7A0FF02C0C19A01C034
:10025000C19872E07A95F1F700C0C09ACF9B0AC0AE
:10026000DA0102C0AA0FBB1F6A95E2F7BD017081D7
:10027000762B7083B2E0BA95F1F700C0C098215098
:100280003109D0F60895CF93DF931F92CDB7DEB733
:10029000C298BE016F5F7F4F86E0C5DFC29A82E0E1
:1002A0008A95F1F700C00F90DF91CF910895CF9319
:1002B000DF93EC01C298BC0185E0B5DFBE0180E0B0
:1002C000B2DFC29ADF91CF910895EF92FF920F9320
:1002D0001F93CF93DF938C017B01C298BC0183E015
:1002E000A2DFE70183E0F82EB80189919CDFFA9440
:1002F000D9F7B8018FEF97DFC29ADF91CF911F91A5
:100300000F91FF90EF900895CF93DF9300D000D02E
:100310001F92CDB7DEB719821A821B8280E886BD94
:1003200016BCD99AD19AC29ABA9AB89AC198B99A6F
:10033000D798D39AA8DFC298BE016C5F7F4F80E246
:1003400072DFBE016C5F7F4F80E06DDFBE016C5FCE
:100350007F4F80E068DFBE016C5F7F4F80E063DF2E
:10036000C29ADB9A2FEF83EC99E0215080409040B5
:10037000E1F700C00000DB9886DFCE01059697DF2D
:100380004D8162E08BE390E0C8DEC298BE016C5FF5
:100390007F4F82E048DFBE016C5F7F4F80E043DF2C
:1003A000BE016C5F7F4F80E03EDFBE016C5F7F4F20
:1003B00080E039DFBE016C5F7F4F82E234DFC29A9A
:1003C00022E02A95F1F700C0BE016F5F7F4FCE019A
:1003D00005967BDF4D8162E08BE390E09EDE8FEF40
:1003E00094E32CE0815090402040E1F700C00000F1
:0603F000EBCFF894FFCFF3
:00000001FF
