:1000000010C017C016C015C014C013C012C011C054
:1000100010C00FC00EC00DC00CC00BC00AC009C07C
:1000200008C011241FBECFE5D1E0DEBFCDBFF5D1A2
:1000300052C2E6CFDC01FA0110828C918623E9F7E7
:1000400088E88A95F1F78BEC90E00197F1F700C012
:1000500000008C91862319F08081816080838BEC75
:1000600090E00197F1F700C000008C91862319F011
:100070008081826080838BEC90E00197F1F700C073
:1000800000008C91862319F08081846080838BEC42
:1000900090E00197F1F700C000008C91862319F0E1
:1000A0008081886080838BEC90E00197F1F700C03D
:1000B00000008C91862319F08081806180838BEC15
:1000C00090E00197F1F700C000008C91862319F0B1
:1000D0008081806280838BEC90E00197F1F700C013
:1000E00000008C91862319F08081806480838BECE2
:1000F00090E00197F1F700C000008C91862319F081
:100100008081806880838BEC90E00197F1F700C0DC
:10011000000098E89A95F1F70895FC019081862FE8
:10012000809598239083ABECB0E01197F1F700C075
:100130000000908140FF02C0962B01C0982390835D
:10014000ABECB0E01197F1F700C00000908141FFE7
:1001500002C0962B01C098239083ABECB0E01197BE
:10016000F1F700C00000908142FF02C0962B01C051
:1001700098239083ABECB0E01197F1F700C000003A
:10018000908143FF02C0962B01C098239083ABEC73
:10019000B0E01197F1F700C00000908144FF02C069
:1001A000962B01C098239083ABECB0E01197F1F748
:1001B00000C00000908145FF02C0962B01C098232B
:1001C0009083ABECB0E01197F1F700C00000908194
:1001D00046FF02C0962B01C098239083ABECB0E0A1
:1001E0001197F1F700C0000047FF04C08081862B03
:1001F000808303C09081982390838BEC90E00197DB
:10020000F1F700C000008081862B8083ABECB0E06A
:100210001197F1F700C000008BEC90E00197F1F727
:1002200000C000000895FB01108227E030E099270C
:1002300087FD909541E050E0622FDC01022E02C064
:10024000B595A7950A94E2F7A0FF02C0C19A01C034
:10025000C19872E07A95F1F700C0C09ACF9B0AC0AE
:10026000DA0102C0AA0FBB1F6A95E2F7BD017081D7
:10027000762B7083B2E0BA95F1F700C0C098215098
:100280003109D0F60895CF93DF931F92CDB7DEB733
:10029000C298BE016F5F7F4F86E0C5DFC29A82E0E1
:1002A0008A95F1F700C00F90DF91CF910895CF9319
:1002B000DF93EC01C298BC0185E0B5DFBE0180E0B0
:1002C000B2DFC29ADF91CF910895FF920F931F93EF
:1002D000CF93DF9300D0CDB7DEB7F82EC298BE0122
:1002E0006F5F7F4F80E29A839EDF0F2D9A81192FD7
:1002F00083E0F82EBE016F5F7F4FF80181918F017F
:1003000092DFFA94B9F7C29A0F900F90DF91CF91D4
:100310001F910F91FF900895CF92DF92EF92FF927D
:100320000F931F93CF93DF9300D01F92CDB7DEB70B
:10033000E82EC92ED62EC298BE016F5F7F4F82E095
:100340004A835B8370DF4A81042F5B81152F93E022
:10035000F92EBE016F5F7F4FF80181918F0163DF3E
:10036000FA94B9F7FE2C0E2D1C2D802F8F198D15A8
:1003700040F4BE016F5F7F4FF80181918F0153DF21
:10038000F4CFC29A0F900F900F90DF91CF911F91F1
:100390000F91FF90EF90DF90CF900895CF92DF9272
:1003A000EF92FF920F931F93CF93DF9300D01F9292
:1003B000CDB7DEB7E82EC92ED62EC298BE016F5F2C
:1003C0007F4F83E04A835B832EDF4A81042F5B816A
:1003D000152F23E0F22EBE016F5F7F4FF801819150
:1003E0008F0121DFFA94B9F70E2D1C2D802F8E1965
:1003F0008D1530F4B8018FEF16DF0F5F1F4FF6CF6A
:10040000C29A0F900F900F90DF91CF911F910F9193
:10041000FF90EF90DF90CF900895CF93DF93CDB70B
:10042000DEB72C970FB6F894DEBF0FBECDBF86E0C7
:10043000898387E08A8388E08B8389E08C831986AF
:100440001A861B8680E886BD16BCD99AD19AC29AB4
:10045000BA9AB89AC198B99AD798D39A14DFCE01AC
:10046000099633DFDB9A2FEF83EC99E0215080402F
:100470009040E1F700C00000DB9805DFCE010C964C
:1004800016DF4C8562E08BE390E047DE8E01075F6C
:100490001F4FA80164E0CE0101963EDF6801A8016C
:1004A00064E0CE0105967ADFFE0135967F01F70103
:1004B00041917F0162E08BE390E02FDEEC14FD04BC
:1004C000B1F7FFEF24E38CE0F15020408040E1F7EA
:0A04D00000C00000E4CFF894FFCF55
:00000001FF
