:1000000010C01FC01EC01DC01CC01BC01AC019C01C
:1000100018C017C016C015C014C013C012C011C03C
:1000200010C011241FBECFE5D1E0DEBFCDBF20E060
:10003000A0E6B0E001C01D92A136B207E1F71DD2E3
:1000400043C2DECFDC01FA0110828C918623E9F7EE
:1000500088E88A95F1F78BEC90E00197F1F700C002
:1000600000008C91862319F08081816080838BEC65
:1000700090E00197F1F700C000008C91862319F001
:100080008081826080838BEC90E00197F1F700C063
:1000900000008C91862319F08081846080838BEC32
:1000A00090E00197F1F700C000008C91862319F0D1
:1000B0008081886080838BEC90E00197F1F700C02D
:1000C00000008C91862319F08081806180838BEC05
:1000D00090E00197F1F700C000008C91862319F0A1
:1000E0008081806280838BEC90E00197F1F700C003
:1000F00000008C91862319F08081806480838BECD2
:1001000090E00197F1F700C000008C91862319F070
:100110008081806880838BEC90E00197F1F700C0CC
:10012000000098E89A95F1F70895FC019081862FD8
:10013000809598239083ABECB0E01197F1F700C065
:100140000000908140FF02C0962B01C0982390834D
:10015000ABECB0E01197F1F700C00000908141FFD7
:1001600002C0962B01C098239083ABECB0E01197AE
:10017000F1F700C00000908142FF02C0962B01C041
:1001800098239083ABECB0E01197F1F700C000002A
:10019000908143FF02C0962B01C098239083ABEC63
:1001A000B0E01197F1F700C00000908144FF02C059
:1001B000962B01C098239083ABECB0E01197F1F738
:1001C00000C00000908145FF02C0962B01C098231B
:1001D0009083ABECB0E01197F1F700C00000908184
:1001E00046FF02C0962B01C098239083ABECB0E091
:1001F0001197F1F700C0000047FF04C08081862BF3
:10020000808303C09081982390838BEC90E00197CA
:10021000F1F700C000008081862B8083ABECB0E05A
:100220001197F1F700C000008BEC90E00197F1F717
:1002300000C000000895FC011082C198C098C298C7
:1002400042E04A95F1F700C027E030E085E090E019
:10025000AC01022E02C0559547950A94E2F740FF83
:1002600002C0C19A01C0C19842E04A95F1F700C0AE
:10027000C09A42E04A95F1F700C0C0982150310978
:1002800038F7C19827E030E081E090E0C09842E084
:100290004A95F1F700C0CF9B09C06081AC01022EE6
:1002A00001C0440F0A94EAF7642B6083C09A42E0CD
:1002B0004A95F1F700C02150310940F7C29A0895DC
:1002C000CF93DF9300D000D0CDB7DEB7DC0183E061
:1002D00089836A834B832C831C92C198C098C298EF
:1002E00042E04A95F1F700C0FE013196AE014B5F46
:1002F0005F4F27E030E0808190E0022E02C09595AC
:1003000087950A94E2F780FF02C0C19A01C0C198A4
:1003100082E08A95F1F700C0C09A82E08A95F1F7F1
:1003200000C0C0982150310930F73196E417F50725
:1003300001F7C19827E030E081E090E0C09842E00A
:100340004A95F1F700C0CF9B09C06C91AC01022E19
:1003500001C0440F0A94EAF7642B6C93C09A42E000
:100360004A95F1F700C02150310940F7C29A0F9029
:100370000F900F900F90DF91CF910895C198C09882
:10038000C29842E04A95F1F700C087E090E026E08D
:1003900030E0A901082E02C0559547950A94E2F76E
:1003A00040FF02C0C19A01C0C19842E04A95F1F7EE
:1003B00000C0C09A42E04A95F1F700C0C09801978A
:1003C00040F782E08A95F1F700C0C29A0895CF9273
:1003D000DF92EF920F931F93CF93DF93CDB7DEB7EA
:1003E000CDB6DEB610E00C5F1F4FADB7BEB7A01B99
:1003F000B10B0FB6F894BEBF0FBEADBFEDB7FEB7E1
:10040000319611968C93618342832383E482C19851
:10041000C098C298B2E0BA95F1F700C045E087E015
:1004200090E0208130E0082E02C0359527950A948F
:10043000E2F720FF02C0C19A01C0C19822E02A95CC
:10044000F1F700C0C09AA2E0AA95F1F700C0C098E9
:10045000019738F7415031964111E1CFC198C29AC6
:100460000FB6F894DEBE0FBECDBEDF91CF911F91C7
:100470000F91EF90DF90CF90089580E886BD16BC75
:10048000D99AD19AC29ABA9AB89AC198B99AD79871
:1004900075DF8EEAE82E01E025E040E060E082E0D2
:1004A00096DF25E040E060E080E690E009DF4091E3
:1004B000600062E08BE390E038DE8FE19EE401971C
:0C04C000F1F700C00000EDCFF894FFCF72
:00000001FF
