:1000000010C017C016C015C014C013C012C011C054
:1000100010C00FC00EC00DC00CC00BC00AC009C07C
:1000200008C011241FBECFE5D1E0DEBFCDBF02D096
:1000300029C0E6CF80E886BD16BC83E48FBD89E188
:100040008EBD80E49CE99BBD8ABD83E880BF81E0D2
:1000500083BF8FE786BFDE98D69AC298BA9A80E9A6
:1000600091E09BBD8ABD26B72F5F26BFEFECF7E07E
:100070003197F1F700C0000001968034FCE99F073A
:0800800081F7EDCFF894FFCFEA
:00000001FF
