:1000000010C02AC029C028C027C026C025C024C0CF
:1000100023C022C021C020C01FC01EC01DC01CC0E4
:100020001BC011241FBECFE5D1E0DEBFCDBF10E065
:10003000A0E6B0E0E2E8F4E002C005900D92A83C32
:10004000B107D9F720E0A8ECB0E001C01D92A13DB6
:10005000B207E1F7B4D113C2D3CFFC019081862F50
:10006000809598239083ABECB0E01197F1F700C036
:100070000000908140FF65C0962B9083ABECB0E010
:100080001197F1F700C00000908141FF5CC0962BF2
:100090009083ABECB0E01197F1F700C000009081C5
:1000A00042FF53C0962B9083ABECB0E01197F1F771
:1000B00000C00000908143FF4AC0962B9083ABECB8
:1000C000B0E01197F1F700C00000908144FF41C0FB
:1000D000962B9083ABECB0E01197F1F700C00000D5
:1000E000908145FF38C0962B9083ABECB0E0119720
:1000F000F1F700C00000908146FF2FC0962B90833F
:10010000ABECB0E01197F1F700C0000047FF27C04B
:100110008081862B80838BEC90E00197F1F700C003
:1001200000008081682B6083ABECB0E01197F1F7A1
:1001300000C000008BEC90E00197F1F700C00000D8
:10014000089598239ACF9823A3CF9823ACCF9823D0
:10015000B5CF9823BECF9823C7CF9823D0CF908117
:100160008923D8CFFF920F931F93CF93DF93EC0196
:10017000F62E8A011092CA001092C900E091C900BF
:10018000F091CA00E00FF11F40816F2DCE0165DFB5
:100190008091C9009091CA0001969093CA00809303
:1001A000C900800F911FFC0180818111E7CFDF9191
:1001B000CF911F910F91FF900895C09827E030E0F4
:1001C00090E0482F50E0BA01022E02C07595679565
:1001D0000A94E2F760FF0BC0C19AC09A990FC899C0
:1001E0009160C0982150310970F7892F0895C19806
:1001F000F4CFEF92FF920F931F93CF93DF93EC0115
:100200008B017C01E40EF11CCE15DF0539F4DF9182
:10021000CF911F910F91FF90EF9008958991CDDFBD
:10022000F80181938F01F0CF0F931F93CF93DF934A
:10023000EC018C01060F111DC017D10729F4DF91C5
:10024000CF911F910F9108958991B7DFF5CFCF938B
:10025000C62FDF988F718062B0DF8C2FAEDFDF9A00
:10026000CF9108951F93CF93DF93EB01142FDF9865
:100270008F71A3DF412FBE01CE01BBDFDF9ADF917B
:10028000CF911F9108951F93CF93DF93EB01142F0C
:10029000DF988F71806291DF612FCE01C5DFDF9A19
:1002A000DF91CF911F91089560E787E0D0DF6AE08A
:1002B00080E0CDCFC29868E080E0C9CFC298DF9AD5
:1002C00008956093D000682F85E0C1DF60E081E190
:1002D000BEDF6091D00082E1BADF60E083E1B7DF8A
:1002E00060E084E1B4DF60E085E1B1DF60E086E1F9
:1002F000AEDF66E086E0ABDF68E080E0A8DF63E0C9
:1003000081E0A5DF63E082E0A2DF6FE484E09FDFAD
:1003100060E08CE19CCFC29845E0BC018BE0B3DF8C
:10032000C29A08958091D0000895CF93DF93EC0195
:1003300045E0BC018AE0A7DF45E0BE0180E1DF9136
:10034000CF91A1CFDF988FEF38DFDF9A0895CF9359
:10035000DF930F92CDB7DEB741E0BE016F5F7F4FF5
:1003600088E080DF89818F700F90DF91CF910895B1
:10037000CF93DF93EC01C29897DFDF9881EE1DDF0A
:10038000DF9ADF9880EA19DF6091D000CE014CDF60
:10039000DF9AC29ADF91CF910895D4DF982F90739E
:1003A00081E009F080E00895CDDF85FD04C084FD83
:1003B00004C08FEF089580E0089581E0089580E8FB
:1003C00086BD16BCDB9AD39ADF9AD79AC298BA9A9E
:1003D000C098B89AC198B99AD0984AE650E068E0B7
:1003E0008BE390E0BFDE6ADF64E082E06ADF85E6EF
:1003F00090E09BDF80E690E08EDFCAEAD5E51092C0
:10040000CC00C093CD00D093CE008091C80091E085
:10041000980F9093C8008093CF008CEC90E0A8DFF9
:10042000BCDF8111FDCFC0DF8093CB0040E850E0FE
:10043000882321F0813031F448E950E068E08BE313
:1004400090E090DE84DF8093CB0040EB50E068E0EA
:100450008BE390E087DE4091CB0050E068E08BE3D7
:1004600090E080DE4DEA50E068E08BE390E07ADED9
:100470008FE19EE40197F1F700C00000C0CFF8942F
:02048000FFCFAC
:10048200D7D7D7D7D7E7E7E7E7E70D0A3E20545893
:10049200206465766963652072656164790D0A007E
:1004A2003E205472616E6D697373696F6E20776559
:1004B2006E74204F4B0D0A003E204D6573736167C9
:1004C20065206973206C6F7374202E2E2E0D0A0026
:1004D2003E2052657472616E6D697373696F6E202E
:0804E200636F756E743A0000AF
:00000001FF
