:1000000010C017C016C015C014C013C012C011C054
:1000100010C00FC00EC00DC00CC00BC00AC009C07C
:1000200008C011241FBECFE5D1E0DEBFCDBF2BD16C
:10003000CCC1E6CFDC01FA0110828C918623E9F76E
:1000400088E88A95F1F78BEC90E00197F1F700C012
:1000500000008C91862319F08081816080838BEC75
:1000600090E00197F1F700C000008C91862319F011
:100070008081826080838BEC90E00197F1F700C073
:1000800000008C91862319F08081846080838BEC42
:1000900090E00197F1F700C000008C91862319F0E1
:1000A0008081886080838BEC90E00197F1F700C03D
:1000B00000008C91862319F08081806180838BEC15
:1000C00090E00197F1F700C000008C91862319F0B1
:1000D0008081806280838BEC90E00197F1F700C013
:1000E00000008C91862319F08081806480838BECE2
:1000F00090E00197F1F700C000008C91862319F081
:100100008081806880838BEC90E00197F1F700C0DC
:10011000000098E89A95F1F70895FC019081862FE8
:10012000809598239083ABECB0E01197F1F700C075
:100130000000908140FF02C0962B01C0982390835D
:10014000ABECB0E01197F1F700C00000908141FFE7
:1001500002C0962B01C098239083ABECB0E01197BE
:10016000F1F700C00000908142FF02C0962B01C051
:1001700098239083ABECB0E01197F1F700C000003A
:10018000908143FF02C0962B01C098239083ABEC73
:10019000B0E01197F1F700C00000908144FF02C069
:1001A000962B01C098239083ABECB0E01197F1F748
:1001B00000C00000908145FF02C0962B01C098232B
:1001C0009083ABECB0E01197F1F700C00000908194
:1001D00046FF02C0962B01C098239083ABECB0E0A1
:1001E0001197F1F700C0000047FF04C08081862B03
:1001F000808303C09081982390838BEC90E00197DB
:10020000F1F700C000008081862B8083ABECB0E06A
:100210001197F1F700C000008BEC90E00197F1F727
:1002200000C000000895FB01108227E030E099270C
:1002300087FD909541E050E0622FDC01022E02C064
:10024000B595A7950A94E2F7A0FF02C0C19A01C034
:10025000C19872E07A95F1F700C0C09ACF9B0AC0AE
:10026000DA0102C0AA0FBB1F6A95E2F7BD017081D7
:10027000762B7083B2E0BA95F1F700C0C098215098
:100280003109D0F60895CF93DF931F92CDB7DEB733
:1002900080E886BD16BCD99AD19AC29ABA9AB89A01
:1002A000C198B99AD798D39AC298BE016F5F7F4F11
:1002B00086E0B9DFC29A22E02A95F1F700C0C29821
:1002C000BE016F5F7F4F80E2AEDFBE016F5F7F4F89
:1002D00080E0A9DFBE016F5F7F4F80E0A4DFBE0139
:1002E0006F5F7F4F80E09FDFC29ADB9A8FEF93ECC6
:1002F00029E0815090402040E1F700C00000DB98E9
:10030000C298BE016F5F7F4F86E08DDFC29A82E0A8
:100310008A95F1F700C0C298BE016F5F7F4F85E0FC
:1003200082DFBE016F5F7F4F80E07DDFC29A49812F
:1003300062E08BE390E0F1DEC298BE016F5F7F4F19
:1003400082E071DFBE016F5F7F4F80E06CDFBE0136
:100350006F5F7F4F80E067DFBE016F5F7F4F80E0A0
:1003600062DFBE016F5F7F4F81E15DDFC29A92E085
:100370009A95F1F700C0C298BE016F5F7F4F83E08E
:1003800052DFBE016F5F7F4F80E04DDFBE016F5FC8
:100390007F4F80E048DFBE016F5F7F4F80E043DF2B
:1003A000BE016F5F7F4F80E03EDFC29A498162E00D
:1003B0008BE390E0B2DE2FEF84E39CE0215080409D
:0E03C0009040E1F700C00000D6CFF894FFCFC8
:00000001FF
