:1000000010C01FC01EC01DC01CC01BC01AC019C01C
:1000100018C017C016C015C014C013C012C011C03C
:1000200010C011241FBECFE5D1E0DEBFCDBF20E060
:10003000A0E6B0E001C01D92A136B207E1F727D1DA
:1000400043C1DECFDC01FA0110828C918623E9F7EF
:1000500088E88A95F1F78BEC90E00197F1F700C002
:1000600000008C91862319F08081816080838BEC65
:1000700090E00197F1F700C000008C91862319F001
:100080008081826080838BEC90E00197F1F700C063
:1000900000008C91862319F08081846080838BEC32
:1000A00090E00197F1F700C000008C91862319F0D1
:1000B0008081886080838BEC90E00197F1F700C02D
:1000C00000008C91862319F08081806180838BEC05
:1000D00090E00197F1F700C000008C91862319F0A1
:1000E0008081806280838BEC90E00197F1F700C003
:1000F00000008C91862319F08081806480838BECD2
:1001000090E00197F1F700C000008C91682319F08E
:100110008081806880838BEC90E00197F1F700C0CC
:10012000000098E89A95F1F70895FC019081862FD8
:10013000809598239083ABECB0E01197F1F700C065
:100140000000908140FF65C0962B9083ABECB0E03F
:100150001197F1F700C00000908141FF5CC0962B21
:100160009083ABECB0E01197F1F700C000009081F4
:1001700042FF53C0962B9083ABECB0E01197F1F7A0
:1001800000C00000908143FF4AC0962B9083ABECE7
:10019000B0E01197F1F700C00000908144FF41C02A
:1001A000962B9083ABECB0E01197F1F700C0000004
:1001B000908145FF38C0962B9083ABECB0E011974F
:1001C000F1F700C00000908146FF2FC0962B90836E
:1001D000ABECB0E01197F1F700C0000047FF27C07B
:1001E0008081862B80838BEC90E00197F1F700C033
:1001F00000008081682B6083ABECB0E01197F1F7D1
:1002000000C000008BEC90E00197F1F700C0000007
:10021000089598239ACF9823A3CF9823ACCF9823FF
:10022000B5CF9823BECF9823C7CF9823D0CF908146
:100230008923D8CFFC011082C098DF9882E08A958C
:10024000F1F700C027E030E061E070E0C19882E0A3
:100250008A95F1F700C0C09A82E08A95F1F700C054
:10026000C89B09C08081AB01022E01C0440F0A94D3
:10027000EAF7842B8083C09882E08A95F1F700C06A
:100280002150310918F7DF9A08950895089580E8FC
:1002900086BD16BCDB9AD39ADF9AD79AC298BA9ACF
:1002A000C098B89AC198B99A80E690E0C3DF4091AF
:1002B000600068E08BE390E038DF8FE19EE4019717
:0C02C000F1F700C00000F0CFF894FFCF71
:00000001FF
