:1000000010C02AC029C028C027C026C025C024C0CF
:1000100023C022C021C020C01FC01EC01DC01CC0E4
:100020001BC011241FBECFE5D1E0DEBFCDBF10E065
:10003000A0E6B0E0ECE2F5E002C005900D92A03839
:10004000B107D9F720E0A0E8B0E001C01D92A838C0
:10005000B207E1F7B0D068C2D3CFFC019081862F00
:10006000809598239083ABECB0E01197F1F700C036
:100070000000908140FF65C0962B9083ABECB0E010
:100080001197F1F700C00000908141FF5CC0962BF2
:100090009083ABECB0E01197F1F700C000009081C5
:1000A00042FF53C0962B9083ABECB0E01197F1F771
:1000B00000C00000908143FF4AC0962B9083ABECB8
:1000C000B0E01197F1F700C00000908144FF41C0FB
:1000D000962B9083ABECB0E01197F1F700C00000D5
:1000E000908145FF38C0962B9083ABECB0E0119720
:1000F000F1F700C00000908146FF2FC0962B90833F
:10010000ABECB0E01197F1F700C0000047FF27C04B
:100110008081862B80838BEC90E00197F1F700C003
:1001200000008081682B6083ABECB0E01197F1F7A1
:1001300000C000008BEC90E00197F1F700C00000D8
:10014000089598239ACF9823A3CF9823ACCF9823D0
:10015000B5CF9823BECF9823C7CF9823D0CF908117
:100160008923D8CFFF920F931F93CF93DF93EC0196
:10017000F62E8A011092810010928000E09180009A
:10018000F0918100E00FF11F40816F2DCE0165DFFE
:1001900080918000909181000196909381008093DE
:1001A0008000800F911FFC0180818111E7CFCDB7C6
:1001B000DEB7E5E0ABC180E886BD16BCDB9AD39A1A
:1001C0004AE650E068E08BE390E0CCDF28D064E0C2
:1001D00082E0C2D085E690E041D180E690E030D167
:1001E0000ED18823E9F383E890E091D04091830019
:1001F00068E08BE390E031DF4091840068E08BE3BE
:1002000090E02BDF4091850068E08BE390E025DFF4
:100210004091860068E08BE390E01FDFE1CF2CD1B6
:1002200080E030D181E034D10895EF92FF920F93B6
:100230001F93CF93E82E80E031D107E010E0C0E0BB
:10024000F12CC701002E02C0959587950A94E2F71C
:1002500080FF14C081E028D181E020D1CC0F2AD1C9
:100260008111C16080E01AD10150110950F78C2F23
:10027000CF911F910F91FF90EF90089580E0EBCF09
:10028000CF9380E005D18FEFD0DFC82F81E000D180
:100290008C2FCF910895EF92FF920F931F93CF93DE
:1002A000DF93EC018B017C01E40EF11CCE15DF0520
:1002B00021F4CDB7DEB7E6E028C18991B6DFF801B9
:1002C00081938F01F3CF0F931F93CF93DF93EC01B3
:1002D0008C01060F111DC017D10729F4DF91CF91B2
:1002E0001F910F9108958991A0DFF5CFCF93DF93F0
:1002F000C82FD62F80E0CCD08C2F8F71806295DFF5
:100300008D2F93DF81E0C4D0DF91CF910895CF93FB
:10031000DF93EC0180E0BCD081E687DF409187006D
:10032000BE01CE01B8DF81E0B3D060E487E0DEDF5C
:10033000DF91CF91089580E0ABD082EE76DF81E04F
:10034000A7D060E787E0D2DF80E09CD06BE080E060
:10035000CDDF81E097D0089560938700682F85E016
:10036000C5DF60E081E1C2DF6091870082E1BEDF2E
:1003700060E083E1BBDF60E084E1B8DF60E085E15D
:10038000B5DF60E086E1B2DF66E086E0AFDF68E01F
:1003900080E0ACDF63E081E0A9DF63E082E0A6DF1C
:1003A0006FE484E0A3DF60E08CE1A0DFC4DF0895A8
:1003B0000F931F93CF93DF93082FEB01142F80E04F
:1003C00067D0802F8F7131DF412FBE01CE0163DFF7
:1003D00081E05ED0DF91CF911F910F910895A1E050
:1003E000B0E0E4EFF1E079C041E0BE016F5F7F4F24
:1003F00087E1DEDF898181702196E2E08AC040DFFB
:1004000091E086FD04C0EBDF91E0811190E0892F3F
:1004100008950F931F93CF93DF93C82F8B01D42F91
:1004200080E036D08C2F8F718062FFDE6D2FC80187
:100430004ADF81E02DD0DF91CF911F910F91089578
:10044000CF93DF93EC0180E01DD045E0BE018BE04F
:10045000E0DF81E017D0DF91CF910895CF93DF9354
:10046000EC0145E0BC018AE0D4DF45E0BE0180E15B
:10047000D0DFDF91CF910895BA9AD79AB89AB99AF6
:10048000D0980895882311F0C29A0895C2980895CB
:10049000882311F0DF9A0895DF980895882311F0DA
:1004A000C09A0895C0980895882311F0C19A0895BC
:1004B000C198089589B3817008952F923F924F9209
:1004C0005F926F927F928F929F92AF92BF92CF92E4
:1004D000DF92EF92FF920F931F93CF93DF93CDB7ED
:1004E000DEB7CA1BDB0B0FB6F894DEBF0FBECDBF65
:1004F00009942A88398848885F846E847D848C8436
:100500009B84AA84B984C884DF80EE80FD800C813E
:100510001B81AA81B981CE0FD11D0FB6F894DEBF21
:0C0520000FBECDBFED010895F894FFCF91
:10052C00E7E7E7E7E7D7D7D7D7D70D0A3E205258EA
:10053C00206465766963652072656164790D0A00D3
:00000001FF
