:1000000010C02AC029C028C027C026C025C024C0CF
:1000100023C022C021C020C01FC01EC01DC01CC0E4
:100020001BC011241FBECFE5D1E0DEBFCDBF10E065
:10003000A0E6B0E0EEE4F5E002C005900D92A03835
:10004000B107D9F720E0A0E8B0E001C01D92A938BF
:10005000B207E1F73DD279C2D3CFC29A0895DF9AB1
:1000600008958111FACFC29808958111F8CFDF98D1
:100070000895882311F0C09A0895C09808958823A0
:1000800011F0C19A0895C198089589B381700895B7
:10009000EF92FF920F931F93CF93E82E80E0E9DF5A
:1000A00007E010E0C0E0F12CC701002E02C09595DA
:1000B00087950A94E2F780FF11C0C19AC09ACC0FCD
:1000C000C899C16080E0D5DF0150110968F78C2F15
:1000D000CF911F910F91FF90EF90089580E0CFDFB7
:1000E000EDCFEF92FF920F931F93CF93DF93EC012D
:1000F0008B017C01E40EF11CCE15DF0539F4DF9194
:10010000CF911F910F91FF90EF9008958991C0DFDB
:10011000F80181938F01F0CF0F931F93CF93DF935B
:10012000EC018C01060F111DC017D10729F4DF91D6
:10013000CF911F910F9108958991AADFF5CFCF93A9
:10014000DF93C82FD62F80E090DF8C2F8F718062D5
:100150009FDF8D2F9DDFDF91CF9181CF0F931F9375
:10016000CF93DF93082FEB01142F80E07EDF802FE9
:100170008F718EDF412FBE01CE01B3DFDF91CF91B2
:100180001F910F916CCF0F931F93CF93DF93C82FC5
:100190008B01D42F80E069DF8C2F8F71806278DF34
:1001A0006D2FC801B9DFDF91CF911F910F9157CF0C
:1001B00080E05BDF82EE6CDF52DF60E787E0BFDF6D
:1001C00080E04FDF6BE080E0BADF47CF60E787E099
:1001D000B6DF6AE080E0B3CF80E043DF68E080E034
:1001E000AECF80E03EDF3BCF60938800682F85E094
:1001F000A6DF60E081E1A3DF6091880082E19FDFFC
:1002000060E083E19CDF60E084E199DF60E085E10C
:1002100096DF60E086E193DF66E086E090DF68E0ED
:1002200080E08DDF63E081E08ADF63E082E087DFEA
:100230006FE484E084DF60E08CE181DFB9CFCF93AD
:10024000DF93EC0180E00DDF45E0BE018BE09BDF3A
:10025000DF91CF9102CF809188000895CF93DF93F3
:10026000EC0145E0BC018AE08EDF45E0BE0180E1A3
:10027000DF91CF9188CFCF9380E0F7DE8FEF08DF5B
:10028000C82FEDDE8C2FCF910895CF93DF930F927F
:10029000CDB7DEB741E0BE016F5F7F4F87E15EDF24
:1002A000898181700F90DF91CF910895E4DF91E013
:1002B00086FD04C0EADF91E0811190E0892F089566
:1002C000CF9380E0D2DE80E6E3DE80E0E1DEC82F7F
:1002D000C6DE8C2FCF910895CF93DF93EC0180E0A1
:1002E000C4DE81E6D5DE40918800BE01CE01F9DE94
:1002F000B6DE60E487E0DF91CF9121CFCF93DF932B
:100300000F92CDB7DEB741E0BE016F5F7F4F88E04F
:1003100025DF89818F700F90DF91CF910895CF9362
:10032000DF93EC0180E09DDE51DF80E09EDE81EE18
:10033000AFDE95DE80E099DE80EAAADE609188007B
:10034000CE01EADE8CDEDF91CF9187CE94DF982F4D
:10035000907381E009F080E008958DDF85FD04C091
:1003600084FD04C08FEF089580E0089581E0089532
:10037000FC019081862F809598239083ABECB0E0B0
:100380001197F1F700C00000908140FF65C0962BE7
:100390009083ABECB0E01197F1F700C000009081C2
:1003A00041FF5CC0962B9083ABECB0E01197F1F766
:1003B00000C00000908142FF53C0962B9083ABECAD
:1003C000B0E01197F1F700C00000908143FF4AC0F0
:1003D000962B9083ABECB0E01197F1F700C00000D2
:1003E000908144FF41C0962B9083ABECB0E0119715
:1003F000F1F700C00000908145FF38C0962B908334
:10040000ABECB0E01197F1F700C00000908146FF1F
:100410002FC0962B9083ABECB0E01197F1F700C0A2
:10042000000047FF27C08081862B80838BEC90E003
:100430000197F1F700C000008081682B6083ABEC6E
:10044000B0E01197F1F700C000008BEC90E001974D
:10045000F1F700C00000089598239ACF9823A3CF06
:100460009823ACCF9823B5CF9823BECF9823C7CF7E
:100470009823D0CF90818923D8CFFF920F931F93D9
:10048000CF93DF93EC01F62E8A0110928200109236
:100490008100E0918100F0918200E00FF11F408126
:1004A0006F2DCE0165DF80918100909182000196D1
:1004B0009093820080938100800F911FFC018081C6
:1004C0008111E7CFDF91CF911F910F91FF90089598
:1004D00080E886BD16BCDB9AD39ADF9AD79AC29879
:1004E000BA9AC098B89AC198B99AD0984AE650E09A
:1004F00068E08BE390E0C1DF74DE64E082E074DEEC
:1005000085E690E0ABDE80E690E099DECFDE8823E2
:10051000E9F384E890E0E0DE4091840068E08BE35A
:1005200090E026DF4091850068E08BE390E020DFDB
:100530004091860068E08BE390E01ADF40918700ED
:0E05400068E08BE390E014DFE1CFF894FFCF8A
:10054E00E7E7E7E7E7D7D7D7D7D70D0A3E205258C8
:10055E00206465766963652072656164790D0A00B1
:00000001FF
