:1000000010C01FC01EC01DC01CC01BC01AC019C01C
:1000100018C017C016C015C014C013C012C011C03C
:1000200010C011241FBECFE5D1E0DEBFCDBF20E060
:10003000A0E6B0E001C01D92A236B207E1F772D08F
:1000400092C0DECFD898DB98D99ADC9A10926100E2
:10005000D99ADC9A82E48A95F1F700C0D998DC98A5
:100060008DE08A95F1F70000809161008F5F8093A9
:100070006100843668F30895D898DC98D99ADB9AA1
:1000800010926100D99ADB9A82E48A95F1F700C058
:10009000D998DB988DE08A95F1F700008091610096
:1000A0008F5F80936100843668F30895D998DB9858
:1000B000D89ADC9A10926100D89ADC9A82E48A95E8
:1000C000F1F700C0D898DC988DE08A95F1F7000030
:1000D000809161008F5F80936100843668F308959A
:1000E000D998DC98D89ADB9A10926100D89ADB9A5A
:1000F00082E48A95F1F700C0D898DB988DE08A9564
:10010000F1F70000809161008F5F80936100843679
:1001100068F3089597DFCADFE3DFAECFADDFE0DF3E
:10012000C5DF90CF80E886BD16BCD998D19AD89803
:10013000D09ADC98D49ADB98D39AC8EC10926000DD
:10014000E9DF809160008F5F80936000883CC0F39E
:10015000C0936000E3DF8091600081508093600075
:0A016000882361F3F7CFF894FFCF76
:00000001FF
