:1000000010C01FC01EC01DC01CC01BC01AC019C01C
:1000100018C017C016C015C014C013C012C011C03C
:1000200010C011241FBECFE5D1E0DEBFCDBF20E060
:10003000A0E6B0E001C01D92A136B207E1F75DD1A4
:100040007BC1DECFDC01FA0110828C918623E9F7B7
:1000500088E88A95F1F78BEC90E00197F1F700C002
:1000600000008C91862319F08081816080838BEC65
:1000700090E00197F1F700C000008C91862319F001
:100080008081826080838BEC90E00197F1F700C063
:1000900000008C91862319F08081846080838BEC32
:1000A00090E00197F1F700C000008C91862319F0D1
:1000B0008081886080838BEC90E00197F1F700C02D
:1000C00000008C91862319F08081806180838BEC05
:1000D00090E00197F1F700C000008C91862319F0A1
:1000E0008081806280838BEC90E00197F1F700C003
:1000F00000008C91862319F08081806480838BECD2
:1001000090E00197F1F700C000008C91862319F070
:100110008081806880838BEC90E00197F1F700C0CC
:10012000000098E89A95F1F70895FC019081862FD8
:10013000809598239083ABECB0E01197F1F700C065
:100140000000908140FF02C0962B01C0982390834D
:10015000ABECB0E01197F1F700C00000908141FFD7
:1001600002C0962B01C098239083ABECB0E01197AE
:10017000F1F700C00000908142FF02C0962B01C041
:1001800098239083ABECB0E01197F1F700C000002A
:10019000908143FF02C0962B01C098239083ABEC63
:1001A000B0E01197F1F700C00000908144FF02C059
:1001B000962B01C098239083ABECB0E01197F1F738
:1001C00000C00000908145FF02C0962B01C098231B
:1001D0009083ABECB0E01197F1F700C00000908184
:1001E00046FF02C0962B01C098239083ABECB0E091
:1001F0001197F1F700C0000047FF04C08081862BF3
:10020000808303C09081982390838BEC90E00197CA
:10021000F1F700C000008081862B8083ABECB0E05A
:100220001197F1F700C000008BEC90E00197F1F717
:1002300000C000000895FC011082C098DF9842E0E1
:100240004A95F1F700C0C19827E030E081E090E0E6
:1002500042E04A95F1F700C0C09A42E04A95F1F7B2
:1002600000C0C89B09C06081AC01022E01C0440FD0
:100270000A94EAF7642B6083C0982150310940F753
:10028000DF9A0895FB011082C098DF9862E06A95BA
:10029000F1F700C0C19827E030E090E041E050E085
:1002A000622FDC01022E02C0B595A7950A94E2F7F1
:1002B000A0FF02C0C19A01C0C19872E07A95F1F71F
:1002C00000C0C09AC89B0AC0DA0102C0AA0FBB1FB7
:1002D0006A95E2F7BD017081762B7083B2E0BA9522
:1002E000F1F700C0C09821503109D0F672E07A953C
:1002F000F1F700C008950895089580E886BD16BC02
:10030000DB9AD39ADF9AD79AC298BA9AC098B89AC9
:10031000C198B99ADF9A60E670E08FEFB3DF409141
:10032000600068E08BE390E000DF8FE19EE40197DE
:0C033000F1F700C00000EECFF894FFCF02
:00000001FF
