:1000000010C017C016C015C014C013C012C011C054
:1000100010C00FC00EC00DC00CC00BC00AC009C07C
:1000200008C011241FBECFE5D1E0DEBFCDBF5CD13B
:1000300078C1E6CFDC01FA0110828C918623E9F7C2
:1000400088E88A95F1F78BEC90E00197F1F700C012
:1000500000008C91862319F08081816080838BEC75
:1000600090E00197F1F700C000008C91862319F011
:100070008081826080838BEC90E00197F1F700C073
:1000800000008C91862319F08081846080838BEC42
:1000900090E00197F1F700C000008C91862319F0E1
:1000A0008081886080838BEC90E00197F1F700C03D
:1000B00000008C91862319F08081806180838BEC15
:1000C00090E00197F1F700C000008C91862319F0B1
:1000D0008081806280838BEC90E00197F1F700C013
:1000E00000008C91862319F08081806480838BECE2
:1000F00090E00197F1F700C000008C91862319F081
:100100008081806880838BEC90E00197F1F700C0DC
:10011000000098E89A95F1F70895FC019081862FE8
:10012000809598239083ABECB0E01197F1F700C075
:100130000000908140FF02C0962B01C0982390835D
:10014000ABECB0E01197F1F700C00000908141FFE7
:1001500002C0962B01C098239083ABECB0E01197BE
:10016000F1F700C00000908142FF02C0962B01C051
:1001700098239083ABECB0E01197F1F700C000003A
:10018000908143FF02C0962B01C098239083ABEC73
:10019000B0E01197F1F700C00000908144FF02C069
:1001A000962B01C098239083ABECB0E01197F1F748
:1001B00000C00000908145FF02C0962B01C098232B
:1001C0009083ABECB0E01197F1F700C00000908194
:1001D00046FF02C0962B01C098239083ABECB0E0A1
:1001E0001197F1F700C0000047FF04C08081862B03
:1001F000808303C09081982390838BEC90E00197DB
:10020000F1F700C000008081862B8083ABECB0E06A
:100210001197F1F700C000008BEC90E00197F1F727
:1002200000C000000895CF93DF93FB011082C098B7
:10023000DF9862E06A95F1F700C0C19827E030E0EE
:1002400090E041E050E0622FDC01022E02C0B59543
:10025000A7950A94E2F7A0FF02C0C19A01C0C19815
:1002600072E07A95F1F700C0C09AC89B09C0A081DE
:10027000EA0102C0CC0FDD1F6A95E2F7AC2BA08328
:10028000D2E0DA95F1F700C0C09821503109D8F6D4
:1002900072E07A95F1F700C0DF91CF910895CF9386
:1002A000DF931F92CDB7DEB7FC0180818983BE0149
:1002B0006F5F7F4F8FEFB7DF0F90DF91CF91089582
:1002C000CF93DF931F92CDB7DEB7BE016F5F7F4F35
:1002D000AADFBE016F5F7F4F8FEFA5DF89810F908F
:1002E000DF91CF910895089580E886BD16BCDB9A12
:1002F000D39ADF9AD79AC298BA9AC098B89AC198F6
:10030000B99ADF9A87E090E0DBDF482F68E08BE363
:1003100090E003DF8FE19EE40197F1F700C0000059
:06032000F0CFF894FFCFBE
:00000001FF
