:1000000010C017C016C015C014C013C012C011C054
:1000100010C00FC00EC00DC00CC00BC00AC009C07C
:1000200008C011241FBECFE5D1E0DEBFCDBF55D142
:100030007EC1E6CFDC01FA0110828C918623E9F7BC
:1000400088E88A95F1F78BEC90E00197F1F700C012
:1000500000008C91862319F08081816080838BEC75
:1000600090E00197F1F700C000008C91862319F011
:100070008081826080838BEC90E00197F1F700C073
:1000800000008C91862319F08081846080838BEC42
:1000900090E00197F1F700C000008C91862319F0E1
:1000A0008081886080838BEC90E00197F1F700C03D
:1000B00000008C91862319F08081806180838BEC15
:1000C00090E00197F1F700C000008C91862319F0B1
:1000D0008081806280838BEC90E00197F1F700C013
:1000E00000008C91862319F08081806480838BECE2
:1000F00090E00197F1F700C000008C91682319F09F
:100100008081806880838BEC90E00197F1F700C0DC
:10011000000098E89A95F1F70895FC019081862FE8
:10012000809598239083ABECB0E01197F1F700C075
:100130000000908140FF65C0962B9083ABECB0E04F
:100140001197F1F700C00000908141FF5CC0962B31
:100150009083ABECB0E01197F1F700C00000908104
:1001600042FF53C0962B9083ABECB0E01197F1F7B0
:1001700000C00000908143FF4AC0962B9083ABECF7
:10018000B0E01197F1F700C00000908144FF41C03A
:10019000962B9083ABECB0E01197F1F700C0000014
:1001A000908145FF38C0962B9083ABECB0E011975F
:1001B000F1F700C00000908146FF2FC0962B90837E
:1001C000ABECB0E01197F1F700C0000047FF27C08B
:1001D0008081862B80838BEC90E00197F1F700C043
:1001E00000008081682B6083ABECB0E01197F1F7E1
:1001F00000C000008BEC90E00197F1F700C0000018
:10020000089598239ACF9823A3CF9823ACCF98230F
:10021000B5CF9823BECF9823C7CF9823D0CF908156
:100220008923D8CFFB011082C098DF9842E04A951D
:10023000F1F700C0C19827E030E090E061E070E0A5
:10024000422FDC01022E02C0B595A7950A94E2F771
:10025000A0FF1DC0C19A52E05A95F1F700C0C09AA4
:10026000C89B08C0DB0101C0AA0F4A95EAF740818C
:100270004A2B408342E04A95F1F700C0C0982150D4
:100280003109F0F682E08A95F1F700C00895C1982F
:10029000E2CFCF93DF930F92CDB7DEB7DF9ABE01E7
:1002A0006F5F7F4F8FEFBEDF89810F90DF91CF911E
:1002B0000895CF93DF930F92CDB7DEB7BE016F5F86
:1002C0007F4FB0DFBE016F5F7F4F8FEFABDF898164
:1002D0000F90DF91CF910895089580E886BD16BCF8
:1002E000DB9AD39ADF9AD79AC298BA9AC098B89AEA
:1002F000C198B99ADF9ACDDF482F68E08BE390E090
:100300000CDF8FE19EE40197F1F700C00000DF9A57
:1003100090E080E0CEDF482F68E08BE390E0FDDEE8
:100320008FE19EE40197F1F700C00000E3CFF8945D
:02033000FFCFFD
:00000001FF
